:020000040800F2
:1000000000050020793500085531000857310008F7
:10001000593100085B3100085D3100080000000024
:100020000000000000000000000000005F31000838
:1000300061310008000000006331000865310008EC
:100040006D3100086F31000871310008733100080C
:100050007531000877310008793100087B310008DC
:100060007D3100087F3100088131000883310008AC
:100070008531000887310008893100088B3100087C
:100080008D3100088F31000891310008933100084C
:100090009531000897310008993100089B3100081C
:1000A0009D3100089F310008A1310008A3310008EC
:1000B000A5310008A7310008A9310008AB310008BC
:1000C000AD310008AF310008B1310008B33100088C
:1000D000B5310008B7310008B9310008BB3100085C
:1000E000BD310008BF310008C13100082DE9F043DF
:1000F0009FB000BF66A6269CDFF8E48A02918DF8C7
:100100003B4000210B914FF0FF37044691461D46BE
:100110000AE019F8011B0298A0470028029000F09D
:10012000A4800B98401C0B9099F8000050B1252832
:10013000EFD10020002105900691079008910990C9
:100140000A9103E00B98A7E041F0010119F8010FB3
:100150002028F9D023280CD02B2804D02D2805D016
:10016000302809D083E041F00201EFE741F00401BB
:10017000ECE741F00801E9E741F01001E6E7002073
:100180000D900AE00D98404505DA00EB800302EB84
:100190004302303A0D9209F1010999F80020A2F1C9
:1001A00030000A28EED399F800002E2818BF0C97CB
:1001B00026D119F8010F2A2808D12868286009F1EA
:1001C000010950F8042B28600C9219E02D280CBF6F
:1001D00019F8010B002000220C920BE040B90C9A98
:1001E000424505DA02EB820203EB4203303B0C93FB
:1001F00009F1010999F80030A3F130020A2AEDD380
:10020000ADF83810304699F8001000F081FE08B1C2
:1002100019F8010B8DF83A009DF83A00682804BFE0
:1002200099F80010682903D162208DF83A0008E09F
:100230006C2804BF99F800006C2804D171218DF856
:100240003A1009F1010910A804902A4619F8013B57
:100250006946204600F060F838B910AA6946204681
:1002600000F08CF900287FF55FAF384614E02A28AB
:1002700085D12A682A6052F8040B2A6000280D9064
:1002800003D540420D9041F0040109F101098AE7CC
:10029000686A6C747A4C00001FB0BDE8F083622875
:1002A00020D0682811D06A2803D06C2827D0712864
:1002B00025D10868C01D20F007000860D0E90023A0
:1002C00008300860194610467047002A0A680A601C
:1002D000106803D0121D0A6000B217E0121D0A60F8
:1002E00080B217E0002A0A680A60106803D0121D65
:1002F0000A6040B20AE0121D0A60C0B20AE0002A99
:100300000A680A60106803D0121D0A60C11770479E
:10031000121D0A600021704770B51C460D46B4F1ED
:1003200025002E69114600F017811C386AD0001F85
:10033000022867D9133843D0093863D0801E16D0FD
:10034000401E1ED0401E02285CD9001F19D0401F3D
:1003500000F08380401E33D0401E00F0CD80C01ED0
:1003600000F0D880801E2BD0C01E29D0FAE068692A
:10037000421C6A610A680A6052F8043B0A603354FE
:10038000FAE095F83A000122FFF789FFC5E900017C
:100390000023994204DA6869411C69612D210DE04E
:1003A000288F810704D56869411C69612B2105E00C
:1003B000C00722D56869411C6961202131541CE0C5
:1003C00095F83A000022FFF76AFFC5E9000195F8A9
:1003D0003800010711D5D5E900230020834208BF6A
:1003E00082420AD044F02000782806D16869302182
:1003F0003154401C411C69613454214668693044C1
:10040000E86083E00868C01D20F007000860D0E9BC
:10041000002308300860C5E90023D5E90001C80FB2
:1004200004D06869411C69612D210DE0288F810786
:1004300004D56869411C69612B2105E0C00704D51A
:100440006869411C69612021315468693044E86061
:100450002146284600F0C4F98EE005F13A025078B2
:1004600020B14FF0FF340FF648205EE0107862288C
:1004700008D0682824D06A2812D06C282ED0712881
:100480000ED02BE00A680A6052F8040B0A6020B90B
:100490004FF0FF340FF6302047E0E96A01706BE05F
:1004A0000A680A6052F8040B0A6020B94FF0FF3462
:1004B0000FF6142039E0EA6AD317C0E900235BE0A5
:1004C0000A680A6052F8040B0A6020B94FF0FF3442
:1004D0000FF6F41029E0E96A01804DE00A680A602D
:1004E00052F8040B0A6020B94FF0FF340FF6D81011
:1004F0001BE0E96A01603FE00A680A6052F8040BF9
:100500000A600021C5E90001EE607821284600F06C
:10051000BBF831E00868086050F8044B0860EC60F4
:100520003CB94FF0FF340FF6B81000F0FDFC201A74
:1005300070BD2E6B002E04D5204600F015FD04463C
:1005400008E032460021204600F02AFD002814BFB2
:10055000041B3446AC610FE06869411C69612521C8
:10056000315409E06969481C6861252272542100F0
:1005700002D0411C69613454002070BD2DE9FC415A
:100580000F460646796B7869BC6A091A386A091AF7
:10059000B869091A786A091AF869091A97F83800C7
:1005A0000C1B410790460FD42021002C8DF8001021
:1005B0000ADD254601236A463946304600F060FCD4
:1005C00000285DD16D1EF5D17B6942463946304623
:1005D00000F056FC002853D130208DF800003D6A11
:1005E000002D09DD01236A463946304600F048FCFB
:1005F000002845D16D1EF5D1BB69FA6839463046F1
:1006000000F03EFC00283BD130208DF800007D6AD0
:10061000002D08DD01236A463946304600F030FCE3
:1006200070BB6D1EF6D1F868B969FB69421839468E
:10063000304600F025FC18BB30208DF80000BD6A64
:10064000002D08DD01236A463946304600F018FCCB
:10065000B0B96D1EF6D197F8380041070DD52021AD
:10066000002C8DF8001008DD01236A46394630461B
:1006700000F006FC20B9641EF6D10020BDE8F6812A
:100680004FF0FF30BDE8F6812DE9FC4707468A466A
:100690003E69BAF16F0F08BF082405D04AF0200167
:1006A000782914BF0A2410243C25D7E90023BAF185
:1006B000640F18BFBAF1690F9046994606D1002120
:1006C0008B4203DAD8F1000869EB49090020814523
:1006D00008BF80451FD1386BE8B9082C4CD197F87A
:1006E0003800010748D530203B2586F83B0043E021
:1006F00000280ED597F8380000F01400102808D113
:100700007A6B7869121A386A121A511A0029C8BF0E
:100710003962BDE8F3878DF800A04046494622467D
:10072000E31700F069FC3032D0B26D1E3A28019513
:1007300004DB9DF80000A0F151018A187255404673
:1007400049462246E31700F057FC804689460020C0
:10075000814508BF804503D0F86871198842DCD311
:10076000082C09D197F83800010705D5715D3029AB
:1007700002D06D1E30207055C5F13C01B961701971
:10078000F860386B8142B3DA411A39624FF6EF7084
:10079000398F01403987BDE8F3872DE9D0430646FC
:1007A0000F4614464FF00008DFF8389412E0E007D7
:1007B00007D542464B463046394600F035FD0646E1
:1007C0000F464046494642464B4600F02DFD641018
:1007D00080468946002CEAD130463946BDE8D083B0
:1007E0002DE9F34F054641F020048DB0D5E900898D
:1007F000612C02AE09D0286B002848BF062003D424
:1008000008BF672C01D101202863D5E900235800D7
:100810004015401C0ED119030CD00320A8619DF88F
:10082000380061381A2802D20FF2D06111E00FF2BD
:10083000D0610EE058004015401C0FD119030DD1B6
:100840000320A8619DF8380061381A2814D30FF2EC
:10085000B861E868032200F0B9FDD3E1194621F040
:100860000043B3F5801F10460DD20027BB4208BFDE
:10087000BA42019703D111E00FF28861E9E701AABA
:1008800000F0F8FD0AE0DFF8607307EB1352DFF8C1
:100890005C3301921940DFF858331943C5E9000170
:1008A000612C0ED1E86830210170811CE9609DF84F
:1008B000381061290CBF7821582141706869801C6B
:1008C0006861D5E900AB2BF0004300202AF000025C
:1008D000834204BF8242002300F05A81612C40F021
:1008E000A980286B00284CBF2120401C0090404666
:1008F000009F7F1C49460022002300F0F3FDD946EB
:1009000001988DF8082038BF89F00049001F019038
:10091000002FD0460DF1090040F3498140F2FF71EC
:10092000DFF8D0B20C91064640464946002200232B
:1009300000F0F0FD80F03A814800400D00F11C020B
:1009400010D0002A0EDD0C98824205DB09F0004031
:1009500040EA0B01002013E0A448084040EA02519D
:1009600040460DE029F00043002028F000028342B9
:1009700008BF82420FBF40461C22404600F0E2FD05
:100980008046894600F07CFEFF1F002F044609DDEB
:1009900000F094FE02460B464046494600F0A0FE99
:1009A00080468946F01D072104E004F00F0200F89C
:1009B000012D2411002C01DD491EF6D5491E5CBF16
:1009C000002200F8012DF9D5ECE00020194602AA1A
:1009D0000A4400E05B1E12F80149491E8442F9D026
:1009E0000F2804D10DF10900425C521C4254002929
:1009F00004D50198001D02AE5B1C0190591E12D453
:100A00009DF838007218147804F130085FFA88F401
:100A1000392CC4BFA0F13A04A044491E02F8018950
:100A2000F1D58DF83800286B002840F1B080591EB0
:100A30002963ACE0404649460022002300F052FD05
:100A4000019938BF89F0004947F2975041436A4AFB
:100A500091FBF2F20192D2F1070204DD40464946D1
:100A6000FFF79BFE0AE0524200206449FFF795FE23
:100A700002460B464046494600F0A4FE8046662CDE
:100A8000286BDFF87CB106BF019F0A3706273F18A5
:100A9000142FC8BF142730208DF8080089460DF1A7
:100AA000090000E03046002F34DD06464046494646
:100AB00000F0ACFF01460A4606F1080304200A26AE
:100AC000B2FBF6F606EB860EA2EB4E02303203F8CE
:100AD000012C0A22B6FBF2F202EB820EA6EB4E06C6
:100AE0003036401E03F8026DE9D1083F002F03F1B4
:100AF0000806D7DD084600F09DFF02460B4640463B
:100B0000494600F0EDFD00225B4600F08DFB80467B
:100B10008946CBE70DF10901401A0DF1090604E001
:100B20000199491E401E0191761C31783029F7D079
:100B3000662C02D10199491C03E0652C0CBF0121F0
:100B400000212B6BCB189842B8BF431E002B1ED43C
:100B5000834204DAF05C3528A8BF392000DA30205F
:100B60001946721E02EB010800E05B1E18F801999D
:100B7000491E8145F9D0392802D1705C401C70545F
:100B8000002904D50198401C16465B1C0190019871
:100B900000B200901BB29DF838103246284600F093
:100BA00035F82FE0C61D002F3FF7BEAE30460DF1E1
:100BB0000901401A009903468842C8BF0B46002B22
:100BC0000DF109063FF52FAF8342BFF6FEAE0DF1E2
:100BD0000900C05C07287FF7F8AE0F20F6E600009A
:100BE000CBCCCC0C0000244002FCFFFFFFFF0F80A9
:100BF0000000E03F0000F07FA08601000000F03F11
:100C000084D797410FB0BDE8F08F00002DE9F84779
:100C100083B006468A461746984600F019FFB8F199
:100C2000000F406A356B90F8009002DC4FF001082D
:100C3000B6A7BDF930404AF02000662808BF641C02
:100C400015D0672840F0848014F1040FC0F286802C
:100C5000AC4280F2838096F83800641C010702D40D
:100C6000A845B8BF454620B22D1A48BF00250FFA47
:100C700084FAF068B169BAF1000F25DC4A1C302310
:100C80004354002D03DC96F83800010703D5F068C3
:100C900000F80290521C15EB0A0FB8BF6C4220B24C
:100CA000441941424445B8BFA046B26171620FFA8F
:100CB00088F5F561F068B3692A463946184400F0B2
:100CC00085FB641BB462C4E022B29045084417DA85
:100CD0004246394600F07AFBB0694044B061AAEB65
:100CE0000801002D716203DC96F838100A0705D55B
:100CF000F16801F80090F069401CF061B562A8E06D
:100D0000394600F063FBB069002D5044A8EB04089D
:100D100003DC96F838100A0703D5F16801F8009053
:100D2000401CB0610FFA88F08542F068B369B8BF23
:100D3000A8460FFA88F207EB0A01184400F046FBB8
:100D4000B0690FFA88F10844B061681A706280E0F7
:100D5000BAF1610F14D14FF0700A16E0A84504DA19
:100D600096F838100A0758BF45466D1E48BF002543
:100D7000BAF1670F14BF4FF0450A4FF0650A04E05F
:100D8000BAF1410F08BF4FF0500AB169F368481C2F
:100D9000B061002D17F8012B5A5403DC96F8381077
:100DA0000A071BD5F168431CB36101F80090002DC0
:100DB00014DDA8F101080FFA88F08542F068B8BF89
:100DC000A8460FFA88F23946184400F0FFFAB069D5
:100DD0000FFA88F108446D1AB0617562F068B16964
:100DE0000844002C80F800A003D42B214170811C02
:100DF00003E02D2141706442811C00206A460AE014
:100E000023460A2493FBF4F404EB8405A3EB450387
:100E100002F8013B401C24B2002CF1DC012806DC66
:100E20004AF02002652A04BF302201F8012B48B99C
:100E3000302001F8010B07E0401E1DF80020303281
:100E400001F8012B0028F7DCF068B2691044091A98
:100E5000F16196F8380000F0140010280DD1716986
:100E6000B0694118706A4118F0694118B06A4118B8
:100E7000706B8142BCBF411A316204B0BDE8F0879B
:100E8000F8B505460E4617461C46002074B117F803
:100E9000011BB068A847B06030B1F06A401CF06236
:100EA0000020641EF3D1F2BD4FF0FF30F2BD000010
:100EB0007072696E74665F733A20256E2064697380
:100EC000616C6C6F776564007072696E74663A204D
:100ED00062616420256E20617267756D656E7400B5
:100EE0007072696E74665F733A2062616420257364
:100EF00020617267756D656E740000006E616E0032
:100F00004E414E00696E6600494E460030000000BA
:100F10000278C9B28A421AB11CBF10F8012FF9E752
:100F200018BF00207047000080B500B906A0054931
:100F30000B681BB122220021984701E000F08CFDD4
:100F4000222002BDFC000020636F6E737472616921
:100F50006E742068616E646C65723A206261642010
:100F60006D6573736167650000F10103810704D04B
:100F700010F8011B89B18107FAD10268B2F1013181
:100F8000914311F0803F04BF50F8042FF6E710F8AA
:100F9000011B11B110F8011BFBE7C01A70470000DC
:100FA000C9B2830706D0521E22D310F8013B9942E2
:100FB000F7D11FE0083A13D302F1040241EA0121FC
:100FC00041EA014150F8043B121F21BF4B40A3F1FD
:100FD000013C2CEA030C1CF0803FF3D0C9B2001F87
:100FE000083210F8013B521E28BF91EA030FF8D8CF
:100FF00018BF0120401E7047B3BBD9B1B2F5803F86
:101000007DD2022A1ED98C46B1FBF2F102FB11C33C
:101010001B0443EA1043B3FBF2FC02FB1C3380B217
:1010200040EA0343B3FBF2F002FB103240EA0C400B
:1010300000237047022A05D98446B0FBF2F002FB78
:1010400010C270474AB105D100F0010249085FEAB9
:101050003000704700220023704700F001BD0B00F4
:101060000200002100207047904271EB030CF6D380
:10107000B3F5803F2FD2F0B5B3FA83F7B1FA81F41C
:10108000A7F10F0E3D1B5340CEF1200602FA0EF2DF
:10109000F3415340B5F10F0746D80F3C2C44414073
:1010A000C4F12006A040F1414140B1FBF3F603FB3F
:1010B0001611A2FB0645001BA94102D2761E80181C
:1010C000594180EA010221FA0EF362FA0EF2002180
:1010D0005A403046F0BD30B4B1FBF3FC03FB1C11A9
:1010E000A2FB0C45001BA94103D2ACF1010C8018F6
:1010F000594130BC02460B46604600217047B2F1B0
:10110000807F65D3F0B5B2FA82F7B1FA81F4C7F106
:101110000F063D1B22FA06F307F1110EF2412035AE
:101120005A40B5F10F07B8D94140C4F12006A0409C
:10113000F1414140B1FBF3FC03FB1C11A2FB0C4548
:10114000001BA94103D2BCF1010C801859410F2F9B
:1011500012D30F3FC90341EA5041B1FBF3F603FB41
:101160001611A2FB0645D4EBC030A94102D2761E6F
:101170008018594146EACC3C07B34140C7F12006EC
:10118000B840F1414140B1FBF3F603FB1611A2FB5D
:101190000645001BA94102D2761E8018594180EAFB
:1011A000010221FA0EF3C7F1200462FA0EF20CFAE2
:1011B00007F05A402CFA04F13043F0BD80EA0102F6
:1011C00021FA0EF3002162FA0EF260465A40F0BD99
:1011D0008C46B1FBF2F102FB11C31B0243EA106320
:1011E000B3FBF2FC02FB1C331B024CEA002043EA77
:1011F0001063B3FBF2FC02FB1C331B024CEA002021
:1012000043EA1063B3FBF2FC02FB1C331B024CEA03
:10121000002043EA1063B3FBF2FC02FB1C324CEAF1
:101220000020002370470000B0B581EA030C0CF0E9
:10123000004C40F2FF7515EA11541DBF15EA135713
:10124000AC42AF4239E0E41923EA455343F480133A
:10125000C90241F0004141EA505EC7021100A7FBFC
:10126000020200284FF00000EEFB01204FF00001C9
:10127000E3FB072118BF42F0010240180021494159
:10128000E3FB0E01A4F580640F0302D2520040413B
:10129000494154F101046CDD470872F1004250F1FC
:1012A000000051EB0451A1F580115CBF41EA0C0133
:1012B000B0BD4CEA05510020B0BD05EA1357AC4261
:1012C00014BFAF4241E050EA410E1CBF52EA430E48
:1012D00002E061460020B0BD24423C441BD15FEADD
:1012E000070EF6D0090302BF01460020AEF1140E2E
:1012F000B1FA81F7AEEB070401FA07FE0C37C7F12C
:10130000200100FA07F7C8404EEA000E23EA4553D1
:1013100043F48013A2E733F00043B3FA83F704BF2A
:10132000B2FA82FE77440B3FE41BB7F1200E2FBFC9
:1013300002FA0EF3BB40C7F1200E22FA0EFE38BFB0
:1013400043EA0E03BA40641C82E750EA410E14BF20
:1013500052EA430E6FF000014FF4001717EB430FF2
:101360008ABF194617EB410FB5E74CEA055100203B
:10137000B0BDD4F10104B4F120070FDAC4F12007A5
:10138000520828BF42F0010210FA07F501FA07F7E8
:10139000E1BF2A43E0403843E1400FE0352C98DCC0
:1013A000C7F1200452EA400220FA07F218BF42F0C7
:1013B000010231FA07F0A1400A43002172F1004214
:1013C00050F1000051EB0C01B0BD000062B38B077F
:1013D00008D0521E11F8013B00F8013B00F02480B8
:1013E0008B07F6D1830740F0208000BF103A07D367
:1013F00030B4B1E83810103AA0E83810F9D230BC57
:10140000530724BFB1E80810A0E8081044BF51F802
:10141000043B40F8043BD20724BF31F8022B20F8EC
:10142000022B44BF0B7803707047121F17D35B0069
:1014300009D151F8043B20F8023B1B0C121F20F885
:10144000023BF6D20BE051F8043B00F8013B1B0ACB
:1014500020F8023B1B0C121F00F8013BF3D238BFEF
:10146000121D521E24BF11F8013B00F8013BF8D8B1
:101470007047000010B5144600F002F8226010BD5D
:10148000C1F30A5343B14A0012F5001F28D2A3F258
:10149000FE32A1EB0251704750EA410C20D001F01E
:1014A000004C31EA0C01B1FA81F204BFB0FA80F3CA
:1014B000D2180B3AB2F120032CBF00FA03F191408D
:1014C00041EA0C013EBFC2F1200C20FA0CF3194393
:1014D0009040524240F2FD33D21A01EB0351704763
:1014E000002270474FF4001C1CEB410F94BF1CEB13
:1014F000430F09E041EA030C50EA4C0C52EA0C0C91
:1015000003D2994208BF9042704714BF8B42824277
:10151000704700004FF4001C1CEB410F94BF1CEB04
:10152000430F09E041EA030C50EA4C0C52EA0C0C60
:1015300003D28B4208BF8242704714BF9942904247
:1015400070470000124254D440F2FF7C1CEA115351
:101550000FD0634531D09B1863453CBF01EB02516E
:10156000704701F0004141EA0C510020AFF30080C8
:10157000704750EA410320D001F0004C91EA0C0181
:101580001CD0B1FA81F30B3B9A420DD9D21A994083
:1015900051EA0C01C3F1200C20FA0CFC6144984084
:1015A000531C40F2FF7CD7E7914041EA0C01C2F1A5
:1015B000200C20FA0CF3194390407047B0FA80F3E6
:1015C0001533202BE0D3202AEED3203A203B9A4239
:1015D00009D9D21A00FA03F141EA0C010020531C88
:1015E00040F2FF7CB8E700FA02F141EA0C0100206A
:1015F0007047524240F2FF7C1CEA11530DD0634504
:10160000DBD0B2EB030C3CBFA1EB025170470CF1F5
:10161000010221EA035141F4801150EA410CCCD07F
:1016200001F0004C352A27DC30B481EA0C01B2F11C
:10163000200309DAC2F12003044601FA03F5D04081
:101640002843D1409C400CE0C3F12002450020FA21
:1016500003F418BF44F0010421FA03F091400C4355
:10166000002174F1004550F1000051EB0C012442BF
:1016700030BC7FF47BAF70476146002076E7000006
:10168000C1F30A5340F2FE329B1A14DDD3F120035A
:101690004FEAE17208DDC90241EA505141F00040D1
:1016A000D84080185040704703F2E13010B1D24367
:1016B00082F000407047002070470000C11768B1F9
:1016C0004840401AB0FA80F29040D21CC907C2F5D7
:1016D000846241EA025202EBD021400570470000CB
:1016E00070B44FF0004591EA030F40F1BB816B40AD
:1016F000841A71EB030603D2001BB1411219734126
:101700004FF4001C1CEB410F34BF7CEB430442E060
:101710000C0DA4EB1356352E4FDC45EAC323DB0A30
:1017200045EAC121C912B6F120050DDD63FA05F6BF
:10173000EB4086EA0305124218BF45F00105C018C8
:1017400051F100010CD213E062FA06F5F240554067
:10175000F3415A40B340F3405A408018594107D3EF
:1017600049085FEA30005FEA350528BF45F001050A
:1017700001F58011420875F1004250F1000041EB83
:1017800004514E0016F5001F70BC38BF7047002092
:10179000090D090570471CEB410F10D252EA4306B0
:1017A0000BD0BCEB410F05D80C0DAB43661E342E9D
:1017B000B6DD02E0AB438018594170BC704770BC85
:1017C00070470000F0B540F2FF7581EA030C0CF0A1
:1017D000004C15EA11541DBF15EA1357AC42AF4235
:1017E000E5E0BC41C1F31301C3F31303801A99412F
:1017F00043F4801304D2641E4000494180185941CB
:10180000C90241EA5051B1FBF3F603FB1611A2FBEA
:101810000675D7EBC020A94102D2761E8018594127
:10182000C90241EA5051B1FBF3FE03FB1E11A2FBBA
:101830000E75D7EBC020A94103D2AEF1010E80187E
:101840005941890241EA9051760546EA8E2EB1FB54
:10185000F3F603FB1611A2FB0675D7EB8020A94116
:1018600002D2761E80185941C90241EA50514EEA0F
:10187000060EB1FBF3F603FB1611A2FB0675D7EBC0
:10188000C020A94102D2761E80185941C90241EAFE
:101890005051B1FBF3F703FB1711A2FB0735D3EB54
:1018A000C020A94167F100070CBF004247F00107C3
:1018B00066F3D5274FEA1E31B80814F5806412DDAF
:1018C000BD0775F1004250EB0E5051EB045111F57C
:1018D000801F5CBF41EA0C01F0BD4CF07F6141F01C
:1018E000E0410020F0BDBD076D0840EA0E5041F414
:1018F0008011D4F10104B4F120060ADAC4F1200603
:101900000200E04001FA06F3E1401843B2401543FB
:101910000EE0342C13DCC6F1200445EA40056D08C6
:1019200020FA06F2154321FA06F0A1400D430021EA
:1019300075F1004250F1000051EB0C01F0BD0020A8
:101940005FEA0C01F0BDCFB992185B41B3FA83F79F
:1019500004BFB2FA82F6BF190B3FB7F120062FBFC2
:1019600002FA06F3BB40C7F1200622FA06F638BF9A
:101970003343BA401CB1E419641E33E77F4231F0AF
:101980000041B1FA81F404BFB0FA80F6A4190B3C0F
:10199000B4F120062FBF00FA06F1A140C4F12006E1
:1019A00020FA06F638BF3143A0403C1B1AE7AC4290
:1019B0001ABF05EA1357AF4212E050EA41061CBFB6
:1019C00052EA4306BFE750EA4107304661461CBF72
:1019D00041EA0551F0BD52EA430C08BFC143F0BDD6
:1019E00000204FF4001616EB410F98BF16EB430F83
:1019F00008BF16EB410F24BFC14305E016EB430FB0
:101A00000CBF61464CEA0551F0BD0000400D49187D
:101A100040EA81200CD2490DA1F58061491C40F0BB
:101A2000004005DBD1F11F0154BFC840C01770470B
:101A300000207047014648B1B0FA80F18840C91CC7
:101A4000C1F58461090501EBD02140057047000014
:101A50000048704714000020012000F0B7B80000D3
:101A600070470000841A71EB030604D26E40001B1D
:101A7000B141121973414FF4001C1CEB410F34BFEC
:101A80007CEB430682E00C0DA4EB1356362E7BDC78
:101A9000012E45EAC32341DC43EA525312BFD2026E
:101AA00092025B08240545EAC12141EA5051D2EB7C
:101AB000C020994125D407D1B0FA80F610FA06F17A
:101AC00062D00020203608E0B1FA81F6B140C6F1BC
:101AD000200220FA02F21143B0404FEAF474B4EB52
:101AE000465434F001064FEA74040AD8D6F50016BD
:101AF000760D04F00044F04061FA06F25040F140E7
:101B00004840C00A40EA415021F0004128BF5FEA46
:101B1000500550F1000044EBD12135E0DB0A45EAE5
:101B2000C121C90AB6F120050EDD42EA0242120CBB
:101B3000C5F1200603FA06F6EB4042EA06056D42BF
:101B4000984161F100010DE062FA06F5F24055405E
:101B500063FA06FC82EA0C02F3405A406D4290415F
:101B600061EB030111F4801F05D1641E620502D0F0
:101B70006D004041494121F48011430875F1004353
:101B800050F1000041EB045170BC70471CEB410F59
:101B900015D223F0004352EA43060BD04FEA4C0C17
:101BA000BCEB410F04D80C0D661E342EB7DDEBE7FD
:101BB000801A994150EA410608BF0021E4E708BFB6
:101BC0001CEB430F28BF6FF00001DDE780B5AFF3DA
:101BD0000080024A11001820ABBEFBE7260002007D
:101BE00038B504000D000020DFF8DC02844243D049
:101BF000B4F1804F40D0DFF8EC0384423CD0DFF8F2
:101C0000E803844238D0DFF8E403844234D0DFF8BC
:101C1000E003844230D0DFF8DC0384422CD0DFF8CC
:101C2000D803844228D0DFF8D403844224D0DFF8DC
:101C3000D003844220D0DFF8CC0384421CD0DFF8EC
:101C4000C803844218D0DFF8C403844214D0DFF8FC
:101C5000C003844210D0DFF8BC0384420CD0DFF80C
:101C6000B803844208D0DFF8B803844204D0E721E7
:101C7000DFF8A80300F04AFB6888002810D06888C5
:101C800010280DD0688820280AD06888402807D0FE
:101C90006888602804D0E821DFF8800300F036FB74
:101CA000E88800280CD0E888B0F5807F08D0E88864
:101CB000B0F5007F04D0E921DFF8600300F026FBD7
:101CC0002188DFF80402844212D0DFF82C0384421A
:101CD0000ED0B4F1804F0BD0DFF80803844207D058
:101CE000DFF80403844203D0DFF80003844204D108
:101CF0004FF68F70014068880143DFF8F402844298
:101D000008D0DFF8F002844204D04FF6FF400140D3
:101D1000E88801432180A888A08528882085DFF8ED
:101D2000A80184420FD0DFF8D00284420BD0DFF844
:101D3000E402844207D0DFF8E002844203D0DFF8F7
:101D4000E002844201D1287A20860120A08231BDA0
:101D50002DE9F04104000E000020002000205A4828
:101D6000844213D0B4F1804F10D09E4884420DD0ED
:101D70009D4884420AD09D48844207D09E488442B0
:101D800004D04FF4E171A54800F0C0FA3088002873
:101D900013D03088102810D0308820280DD03088FB
:101DA00030280AD03088602807D03088702804D0C6
:101DB00040F2C311994800F0A9FA7088002807D0B2
:101DC0007088012804D04FF4E271944800F09EFA24
:101DD0003089002807D03089022804D040F2C5118C
:101DE0008E4800F093FA218C4FF6FF600140218469
:101DF000B4F82080A588A78B4FF68F7007404FF668
:101E0000FC700740308807434FF6FF5010EA08087F
:101E1000308958EA0028708858EA00282A48844205
:101E200002D07548844247D1B088002807D0B088D6
:101E3000042804D040F2E111784800F067FA708974
:101E4000002807D07089082804D04FF4F171734836
:101E500000F05CFAF089B0F5007F07D0F089002827
:101E600004D040F2E3116D4800F050FAB089B0F5AB
:101E7000807F07D0B089002804D04FF4F271674802
:101E800000F044FA4FF2FF7010EA0808708958EA2F
:101E900000284FF6FF3010EA0808B08858EA0028FA
:101EA0004EF6FF7005404DF6FF700540B08955EACB
:101EB0000015F08955EA0015A580A783F088A08752
:101EC000A4F82080BDE8F081002C01402DE9F0410C
:101ED00004000D00002000200020DFF800038442F1
:101EE00013D0B4F1804F10D03E4884420DD03E480C
:101EF00084420AD03D48844207D03F48844204D0FF
:101F000040F21121454800F001FA2888002813D03A
:101F10002888102810D0288820280DD0288830281C
:101F20000AD02888602807D02888702804D040F27A
:101F300012213A4800F0EAF96888002807D068883A
:101F4000012804D040F21321344800F0DFF9288939
:101F5000002807D02889022804D04FF405712F48A3
:101F600000F0D4F9218C4EF6FF7001402184268CBC
:101F7000A788B4F81C8048F6FF7010EA08084FF6EE
:101F8000FF4010EA0808288858EA00284DF6FF703C
:101F90000640288956EA0036688856EA0036DFF897
:101FA0003C02844202D01448844211D1A889B0F581
:101FB000807F07D0A889002804D040F2312117483B
:101FC00000F0A4F94BF6FF700740A88957EA801784
:101FD000A780A4F81C80E888A4F840002684BDE807
:101FE000F08100000004004000080040000C0040A8
:101FF000001000400014004000340140004C01403B
:10200000005001400054014000180040001C0040F6
:102010000020004000400140004401408C32000894
:102020000048014038B505000C00DFF8B0018542DA
:1020300044D0B5F1804F41D0DFF8A80185423DD0B2
:10204000DFF8A401854239D0DFF8A001854235D000
:10205000DFF8C401854231D0DFF8C00185422DD0C0
:10206000DFF87C01854229D0DFF88401854225D044
:10207000DFF88001854221D0DFF87C0185421DD048
:10208000DFF87801854219D0DFF87401854215D058
:10209000DFF87001854211D0DFF86C0185420DD068
:1020A000DFF86801854209D0DFF86801854205D074
:1020B00040F22A31DFF8580100F028F92000C0B2C0
:1020C000002809D02000C0B2012805D040F22B31F1
:1020D000DFF83C0100F01AF9E4B2002C04D02888A3
:1020E00050F00100288004E029884FF6FE7001407E
:1020F000298031BD70B505000E00140037488542B7
:1021000044D0B5F1804F41D0DFF8D80085423DD0B2
:10211000DFF8D400854239D0DFF8D000854235D0D1
:10212000DFF8F400854231D0DFF8F00085422DD091
:10213000DFF8AC00854229D0DFF8B400854225D015
:10214000DFF8B000854221D0DFF8AC0085421DD019
:10215000DFF8A800854219D0DFF8A400854215D029
:10216000DFF8A000854211D0DFF89C0085420DD039
:10217000DFF89800854209D0DFF89800854205D045
:102180004FF45B71DFF8880000F0C0F816F47F4F61
:1021900003D1300080B2002805D140F26D31DFF864
:1021A000700000F0B3F82000C0B2002809D0200071
:1021B000C0B2012805D040F26E31DFF8540000F0C3
:1021C000A5F8E4B2002C03D0A8890643AE8103E051
:1021D000A88930EA0606AE8170BD0000002C0140DF
:1021E000003401400004004000080040000C0040A2
:1021F000004C0140005001400054014000180040D4
:10220000001C00400020004000400140004401400C
:102210008C320008004801400010004000140040CB
:1022200038B504000D0000203248844217D0B4F1C4
:10223000804F14D0DFF8C000844210D0DFF8BC001B
:1022400084420CD0DFF8B800844208D0DFF8B40034
:10225000844204D040F21B610B4800F057F828007C
:1022600080B2082808D0280080B2002804D040F2AC
:102270001C61054800F04AF8A18B4FF6F770014049
:102280000D43A58331BD00008C32000838B5040031
:102290000D0000201748844215D0B4F1804F12D0B1
:1022A000154884420FD0154884420CD0144884420B
:1022B00009D0DFF85000844205D040F23361DFF8E6
:1022C000480000F023F8280080B2082809D0280030
:1022D00080B2002805D040F23461DFF82C0000F015
:1022E00015F8A18B4FF2FF70014051EA0521A1833F
:1022F00031BD0000002C01400004004000080040F7
:10230000000C0040003401408C32000880B50A0007
:102310000100024800F004F8FEE700000034000865
:102320000EB4C0B5024603A800210190009101AB94
:102330000121044878440C30FDF7D8FE06BC5DF856
:1023400010FB00BFED11000030B585B004000D009A
:1023500000200020002000200020DFF8DC03844261
:1023600014D0DFF8D803844210D0DFF8D4038442BD
:102370000CD0DFF8D003844208D0DFF8D0038442C9
:1023800004D0B821DFF8C003FFF7C0FF2868002899
:1023900004D02868DFF8B813884204D3B921DFF8E5
:1023A000A803FFF7B3FFA888002808D0A888B0F5D5
:1023B000805F04D0BA21DFF89003FFF7A7FFE88819
:1023C000002810D0E888B0F5805F0CD0E888B0F520
:1023D000005F08D0E888B0F5405F04D0BB21DFF88B
:1023E0006803FFF793FF288900280CD02889B0F5EF
:1023F000806F08D02889B0F5C06F04D0BC21DFF809
:102400004803FFF783FF68894FF6F371084202D152
:102410006889002804D1BD21DFF82C03FFF776FF7F
:10242000A889002810D0A889B0F5807F0CD0A88991
:10243000B0F5007F08D0A889B0F5407F04D0BE2158
:10244000DFF80403FFF762FFA889002810D0DFF847
:10245000E80284420CD0DFF8E402844208D0DFF8BE
:10246000E002844204D0C221DFF8DC02FFF74EFF15
:10247000218A4CF6FF700140E88801432182A1893E
:102480004EF6F3100140AA88288902436889024366
:102490001143A181A18A4FF6FF400140A889014361
:1024A000A182684600F0CAF9DFF88C02844201D1AB
:1024B000039900E00299A089000406D51920414340
:1024C00028684000B1FBF0F205E01920414328687C
:1024D0008000B1FBF0F26420B2FBF0F109010B00C7
:1024E0001B09642000FB1322A089000408D5D0003A
:1024F00032306422B0FBF2F010F00700014307E035
:10250000100132306422B0FBF2F010F00F000143F2
:10251000218105B030BD38B505000C00DFF8180288
:10252000854215D0DFF81402854211D0DFF8100281
:1025300085420DD0DFF80C02854209D0DFF80C028D
:10254000854205D04FF4B171DFF8FC01FFF7DEFEE4
:102550002000C0B2002809D02000C0B2012805D058
:1025600040F26311DFF8E001FFF7D0FEE4B2002C87
:1025700004D0A88950F40050A88104E0A9894DF640
:10258000FF700140A98131BD70B505000E00140037
:102590000020002000200020DFF89C01854215D09B
:1025A000DFF89801854211D0DFF8940185420DD003
:1025B000DFF89001854209D0DFF89001854205D00F
:1025C00040F28911DFF88001FFF7A0FE300080B2F1
:1025D00028282DD0300080B240F22771884227D0C1
:1025E000300080B240F22661884221D0300080B2B3
:1025F00040F2255188421BD0300080B240F2244185
:10260000884215D0300080B240F6460188420FD093
:10261000300080B240F66A11884209D0300080B2A2
:10262000602805D04FF4C571DFF81C01FFF76EFE7E
:102630002000C0B2002809D02000C0B2012805D077
:1026400040F28B11DFF80001FFF760FE300080B22E
:1026500040F66A11884211D1DFF8DC0085420DD0C6
:10266000DFF8D800854209D0DFF8D400854205D0D4
:1026700040F28F11DFF8D000FFF748FE3000C0B203
:102680004009C0B2B6B216F01F06012111FA06F6D3
:10269000012801D10C3504E0022801D1103500E0F9
:1026A0001435E4B2002C03D0286806432E6003E002
:1026B000286830EA06062E6070BD38B504000D00AB
:1026C0001D48844210D01D4884420DD01C488442CD
:1026D0000AD01C48844207D01C48844204D040F2EF
:1026E00053211948FFF712FE280080B2B0F5007F91
:1026F00004DB4FF415711448FFF708FEED05ED0DEE
:10270000A58031BD10B504000B48844210D00B48A1
:1027100084420DD00A4884420AD00A48844207D035
:102720000A48844204D04FF419710748FFF7EEFDC0
:10273000A088C005C00D10BD003801400044004015
:1027400000480040004C0040F032000800500040BB
:1027500021AA440038B504000D000020DFF8C400B1
:10276000844215D0DFF8C000844211D0DFF8BC00ED
:1027700084420DD0DFF8BC00844209D0DFF8B800F5
:10278000844205D040F26E31DFF8A400FFF7BEFDB1
:10279000280080B201282AD0280080B2802826D0C4
:1027A000280080B2402822D0280080B220281ED0E5
:1027B000280080B210281AD0280080B2B0F5807F9F
:1027C00015D0280080B2B0F5007F10D0280080B26C
:1027D00008280CD0280080B2042808D0280080B235
:1027E000022804D040F26F311148FFF78FFD280016
:1027F00080B2B0F5007F0DD10A4884420AD00A4861
:10280000844207D00948844204D040F2733108481A
:10281000FFF77CFD2088284201D0012000E0002045
:10282000C0B232BD003801400044004000480040C2
:10283000F0320008004C0040005000400021002110
:1028400000210021DFF88C11096811F00C0100292A
:1028500004D0042906D0082908D029E0DFF87C112B
:10286000016028E0DFF87811016024E0DFF86411EE
:102870000A6812F47012DFF85C11096811F48031F3
:10288000920C921C002904D1DFF858114A430260CF
:102890000DE0DFF840110968890304D5DFF848111D
:1028A0004A43026003E0DFF838114A43026002E065
:1028B000DFF828110160DFF81C11096811F0F00140
:1028C0000909DFF82821515C0268CA404260DFF83C
:1028D0000411096811F4E061090ADFF81021515C64
:1028E0004268CA408260DFF8EC10096811F4605158
:1028F000C90ADFF8F820515C4268CA40C260DFF8BC
:10290000D410096811F44041890BDFF8E420515CD0
:10291000C268B2FBF1F10161704738B504000D00E7
:10292000DFF8D000044201D1002C05D140F24A4129
:10293000DFF8A400FFF7EAFC2800C0B2002809D0A5
:102940002800C0B2012805D040F24B41DFF88800D2
:10295000FFF7DCFCEDB2002D07D0DFF89C0000682B
:102960000443DFF89400046007E0DFF88C0000689F
:1029700030EA0404DFF88000046031BD38B504009B
:102980000D00DFF87800044201D1002C04D140F2A0
:1029900069411148FFF7BAFC2800C0B2002808D0EE
:1029A0002800C0B2012804D040F26A410A48FFF76B
:1029B000ADFCEDB2002D05D011480068044310486D
:1029C000046005E00E48006830EA04040C48046026
:1029D00031BD0000041002402832000800127A00C5
:1029E000001BB70000093D00808D5B000000002047
:1029F000100000200200C0FF1810024000360181C4
:102A00001C10024001B40099642041437F480160DA
:102A10007E4800680028FBD101B070477B48006801
:102A2000002804D079480068401E78490860704743
:102A3000F8B55FF4E13000900020ADF8040000200C
:102A4000ADF806000020ADF808000020ADF80C003D
:102A50000C20ADF80A0069466D48FFF775FC0122AD
:102A600040F225516A48FFF78FFD01216848FFF7C2
:102A700052FD05B000BD80B588B040F20330ADF81E
:102A8000000018208DF8030003208DF8020069462D
:102A9000604800F0E9F801210420FFF76FFF44F6D9
:102AA0001F60ADF808004720ADF804000020ADF825
:102AB0000A000020ADF8060001A95748FFF790F87A
:102AC0006020ADF810000120ADF812000020ADF834
:102AD00018000020ADF8160004A94F48FFF738F998
:102AE00004A94D48FFF7F2F908214B48FFF798FB7E
:102AF00008214948FFF7CAFB01214748FFF792FA2E
:102B000001210220FFF73AFF44F61F60ADF80800EC
:102B10004720ADF804000020ADF80A000020ADF811
:102B2000060001A93D48FFF75BF86020ADF81000F2
:102B30000120ADF812000020ADF818000020ADF81B
:102B4000160004A93548FFF703F904A93348FFF735
:102B5000BDF908213148FFF763FB08212F48FFF733
:102B600095FB01212D48FFF75DFA012201212B4839
:102B7000FFF7C0FA09B000BD80B500F03DF90121B2
:102B80002C20FFF7CAFE01214FF48040FFF7C5FE5D
:102B900001BD80B54FF40070ADF8000003208DF842
:102BA000020018208DF8030069461D4800F05CF80B
:102BB0004FF48060ADF8000004208DF803006946F2
:102BC000174800F051F801BD10B504000A2C0ED1D1
:102BD0000D210F48FFF771FD80210D48FFF7BAFD69
:102BE0000028F9D00A210A48FFF767FD05E0210017
:102BF000C9B289B20648FFF760FD80210448FFF79B
:102C0000A9FD0028F9D0200010BD0000F800002028
:102C100000380140000C0140000800400004004062
:102C20000008014038B5040020212000FFF792FD84
:102C30000028F9D02000FFF765FD05002900C9B282
:102C400089B22000FFF739FD80212000FFF782FDC7
:102C50000028F9D02800C0B20D2801D10A2001E0D7
:102C60002800C0B232BD000070B504000D00002085
:102C700000200020002000200020DFF85C018442BA
:102C80001CD0DFF85801844218D0DFF85401844288
:102C900014D0DFF85001844210D0DFF84C01844298
:102CA0000CD0DFF84801844208D0DFF844018442A8
:102CB00004D0B221DFF83C01FFF728FBE8780028B8
:102CC00019D0E878042816D0E878282813D0E878B6
:102CD000482810D0E87814280DD0E87810280AD0B9
:102CE000E8781C2807D0E878182804D0B321DFF84A
:102CF0000401FFF70BFB2888002804D1B421DFF87A
:102D0000F400FFF703FBEE7816F00F06E878C00634
:102D10000FD5A87801280AD0A878022807D0A8786B
:102D2000032804D0BB21DFF8CC00FFF7EFFAA87826
:102D300006432878000621D0236800211BE0E878AC
:102D4000482817D101208840206113E001228A40E1
:102D50002888104090420DD188000F228240934372
:102D600016FA00F018430300E8782828E7D101207C
:102D700088406061491C0829E8D323602888B0F5A1
:102D8000807F27DB6268002121E0012011F1080328
:102D900010FA03F328881840984217D188000F23AF
:102DA00083409A4316FA00F010430200E87828287E
:102DB00004D1012311F1080083406361E8784828B9
:102DC00004D1012311F1080083402361491C082923
:102DD000DBD3626070BD000000080140000C0140C0
:102DE000001001400014014000180140001C014087
:102DF00000200140C431000880B54E48006850F002
:102E000001004C4908604C4801684C4801404A4860
:102E10000160484801684A48014046480160454809
:102E2000006830F48020434908604348006830F46B
:102E3000FE00414908605FF41F004249086000F04D
:102E400005F85FF000604049086001BD80B500F002
:102E500001F801BD82B000200190002000903548AB
:102E6000006850F48030334908603248006810F43C
:102E7000003000900198401C01900098002803D178
:102E80000198B0F5A06FF0D12A480068800302D500
:102E90000120009001E0002000900098012847D117
:102EA0002A48006850F01000284908602748006848
:102EB00080088000254908602448006850F002001E
:102EC000224908601C4800681B4908601A480068CD
:102ED000194908601848006850F480601649086075
:102EE0001548006830F47C101349086012480068E7
:102EF00050F48810104908600E48006850F0807047
:102F00000C4908600B4800688001FBD50A4800683E
:102F100080088000084908600748006850F00200F7
:102F2000054908600448006810F00C000828F9D131
:102F300002B0704700100240041002400000FFF889
:102F4000FFFFF6FE0810024008ED00E000200240FE
:102F5000020052B2002A04D40901674A40B2115457
:102F600007E00901654A40B210F00F00104400F874
:102F7000041C704780B5411EB1F1807F01D3012050
:102F80000EE0401E5E4908600F215FF0FF30FFF742
:102F9000DFFF00205B49086007205B4908600020D4
:102FA00002BD80B55948FFF7BBF95948FFF7B8F99A
:102FB0005848FFF7B5F95848FFF7B2F901BD10B509
:102FC0004FF47A7412E05548FFF7AAF9210048A09F
:102FD000FFF7A6F952480480524804805248048002
:102FE00052480480C820FFF70DFD641D40F2D170E7
:102FF0008442E8DB4E48FFF793F94FF47A70484972
:1030000008804FF47A70474908804FF47A70464937
:1030100008804FF47A704549088010BD80B5FFF7ED
:10302000ABFD4448FFF70AFC424800684249B0FB48
:10303000F1F0FFF79FFF002800D0FEE7FFF7A9FDA2
:10304000FFF7F6FC3D48FFF76BF9FFF714FD64202E
:10305000FFF7D8FCFFF7A5FF2BE03948FFF760F931
:103060004FF47A70FFF7CEFC22A0FFF759F94FF426
:103070007A70FFF7C7FC3348FFF752F94FF47A70C4
:10308000FFF7C0FCFFF79BFF12E02F48FFF748F95E
:103090004FF4FA60224908804FF4FA602149088011
:1030A0004FF4FA60204908804FF4FA601F49088005
:1030B00000202648FFF7B6FDC0B2302804D0F7D371
:1030C0003228CAD0E1D3F3E72148FFF729F94FF4BA
:1030D0007A70134908804FF47A70124908804FF4CF
:1030E0007A70114908804FF47A7010490880DFE740
:1030F00025640A002032000000E400E018ED00E042
:1031000014E000E018E000E010E000E0CC3300083C
:103110000035000818350008AC3400086835000890
:10312000400800403C040040400400403C0800408F
:10313000A0350008E4000020A086010088350008C2
:1031400054350008A8350008E43400080038014070
:10315000C83400087047FEE7FEE7FEE7FEE7704769
:103160007047704780B5FFF759FC01BD7047704745
:103170007047704770477047704770477047704797
:103180007047704770477047704770477047704787
:103190007047704770477047704770477047704777
:1031A0007047704770477047704770477047704767
:1031B0007047704770477047704770477047704757
:1031C00070470000433A5C55736572735C6A6473C0
:1031D00031315C446F63756D656E74735C41524D43
:1031E0005F4941525F50726F6A6563745C4C6962FB
:1031F0007261726965735C53544D33324631307875
:103200005F5374645065726970685F447269766573
:10321000725C7372635C73746D3332663130785FE5
:103220006770696F2E630000433A5C557365727373
:103230005C6A647331315C446F63756D656E747381
:103240005C41524D5F4941525F50726F6A656374D1
:103250005C4C69627261726965735C53544D3332C0
:10326000463130785F5374645065726970685F44AA
:1032700072697665725C7372635C73746D33326607
:103280003130785F7263632E63000000433A5C550F
:10329000736572735C6A647331315C446F63756D1E
:1032A000656E74735C41524D5F4941525F50726F5D
:1032B0006A6563745C4C69627261726965735C53C0
:1032C000544D3332463130785F53746450657269BF
:1032D00070685F4472697665725C7372635C737464
:1032E0006D3332663130785F74696D2E6300000093
:1032F000433A5C55736572735C6A647331315C4444
:103300006F63756D656E74735C41524D5F494152D8
:103310005F50726F6A6563745C4C69627261726956
:1033200065735C53544D3332463130785F53746467
:103330005065726970685F4472697665725C737219
:10334000635C73746D3332663130785F75736172AC
:10335000742E630019E050F8042BD30744BFA9F181
:1033600001039A18091F0023042942F8043BF9D2EB
:103370005FEA817C134604D54FF0000CA2F800C030
:103380009B1CC90744BF0021197050F8041B002979
:10339000E1D1704730B5016884684218416802EB9A
:1033A0005103C9070BD54C4409E012F9011B12F86F
:1033B000015B002904F8015B05D5491CF9D19A424B
:1033C000F3D10C3030BD491EF1D5F8E752454144E8
:1033D00059202D20504C454153452053454E442003
:1033E000494E535452554354494F4E532041532054
:1033F000464F4C4C4F57494E47203A0A00000000B8
:1034000057726F6E6720706172616D65746572735B
:103410002076616C75653A2066696C65202573209D
:103420006F6E206C696E652025640D0A0000000037
:1034300010B5074979441831064C7C44163404E031
:103440000A68081D114488470146A142F8D110BD01
:103450000800000024000000FDFEFFFF6C000000DB
:1034600094000020000000002DFFFFFF4801000035
:10347000D60000000000002000F00DF8002801D068
:10348000FFF7D6FFAFF300800020AFF30080FFF717
:10349000C5FD00F002F80120704700F001B80000FF
:1034A00007463846FEF792FBFBE700000932203A58
:1034B0002052756E20746573742066756E6374692E
:1034C0006F6E0A0A0000000053656E64696E672023
:1034D0006D696E696D756D207468726F74746C655A
:1034E0000A00000053656E64696E67206D6178693B
:1034F0006D756D207468726F74746C650A000000DD
:103500000930203A2053656E64206D696E2074681E
:10351000726F74746C650A000931203A2053656E2D
:1035200064206D6178207468726F74746C650A0031
:1035300038B504460D46284600F006F8A84218BFE4
:103540000024204632BD00000149FFF73DBB00BF0B
:103550004C00002052756E6E696E6720746573743E
:1035600020696E20330A000050756C7365206C650D
:103570006E677468203D200001488047014800477D
:10358000F92D0008953500085553415254203A2032
:103590004F4B0A00AFF30080AFF30080FFF76CFFE2
:1035A00053544F500000000020312E2E2E000000FA
:1035B00000002E00FC002B0102030401020304069C
:1035C00007080902040608B0350008B0350008B045
:1035D000350008B0350008B0350008B0350008B037
:1035E000350008F8FF0BB2350008B0350008B035DB
:1035F0000008FAFF1500000204010194000020E415
:103600000000209400002094000020FC000394009F
:0F3610000020FC0007900000207C000020E0005C
:040000050800359525
:00000001FF
